:03000000020F8F5D
:0C0F8F00787FE4F6D8FD75812F020EF289
:0C0F9B0068656C6C6F20746865726500FE
:100F6C00A2AC9209C2AC8F993099FDC299A2099298
:030F7C00AC7F0047
:010F7F00224F
:070F80007FC8120F877FC834
:080F8700EF6004001F80F92255
:100ED700AD07AC06ED4C6012120F80120F807FC871
:0B0EE700120F87ED1D70ED1C80EA2249
:0A0C5E008C238D248B258A2689271C
:100C68007D0143D420751C0553D4F7E5D420E30750
:100C7800E51C70F7020D2253D4DF43D4040DEF5462
:100C8800FEF5D2751C0553D4F7E5D420E307E51C1F
:100C980070F7020D220DE523F5D2751C0553D4F724
:100CA800E5D420E306E51C70F7806F0DE524F5D246
:100CB800751C0553D4F7E5D420E306E51C70F780CE
:100CC800590DE4FFEFC395285032E52814B5070500
:100CD80053D4FB800343D404AB25AA26A9278F82CB
:100CE800758300120D25F5D2751C0553D4F7E5D48C
:100CF80020E306E51C70F780210F80C80D43D4104F
:100D0800751C0553D4F7E5D430E406E51C70F7806C
:0C0D18000953D4EF53D4F77F0022AF053D
:010D240022AC
:0C0B5C008F298C2A8D2B8B2C8A2D892E42
:100B68007D0143D420751C0553D4F7E5D420E30751
:100B7800E51C70F7020C5553D4DF0D43D404E52966
:100B880054FEF5D2751C0553D4F7E5D420E307E5E8
:100B98001C70F7020C550DE52AF5D2751C0553D4C7
:100BA800F7E5D420E307E51C70F7020C550DE52B9B
:100BB800F5D2751C0553D4F7E5D420E307E51C707E
:100BC800F7020C550D43D420751C0553D4F7E5D412
:100BD80020E306E51C70F7807453D4DF0DE5294443
:100BE80001F5D2751C0553D4F7E5D420E306E51CBE
:100BF80070F780590DE4FFEFC3952F5032E52F149D
:100C0800B5070553D4FB800343D404751C0553D49E
:100C1800F7E5D420E306E51C70F78031AB2CAA2D4C
:100C2800A92E8F82758300E5D2120D520F80C80D50
:100C380043D410751C0553D4F7E5D430E406E51CFD
:100C480070F7800953D4EF53D4F77F002243D410B0
:050C580053D4F7AF05C5
:010C5D002274
:100F3F0043955475AC015392ABE4F5AC43B30375D1
:080F4F00AC02439203F5AC2251
:040FA70075C70122E7
:100F5700E4F5D4E5D4547C4402F5D4E4F5AC53A4C9
:050F6700F943D4402213
:100EBA00E58954FC4401F58953A4FE53A3FB5389E5
:0D0ECA00FB5389F7758A18758CFCD28C22B9
:100EF200120DD5120F3F120F577FF47E01120ED73B
:0B0F02007BFF7A0F799B12086280EEE3
:100F0D0043E78075E504E4F5E38FE48DE275E6468D
:090F1D0075E6B9F5E553E77F2202
:100F260043E78075E505E4F5E38FE475E64675E687
:090F3600B9F5E553E77FAFE222B3
:03000300020FAB3E
:030FAB00C28932C6
:100DD5007F4C120F26E5E2545F4480F5E2ADE27FD9
:100DE5004C120F0D7F40120F2643E210ADE27F40FB
:100DF500120F0D7FC7120F2653E27FADE27FC71298
:100E05000F0DE4F5E2E5E2C39420500405E280F518
:100E15007F40120F2653E2FCADE27F40120F0D7D9D
:100E2500107FC7120F0DE4FD7F43120F0DE4F5E2AD
:100E3500E5E2C394FD500405E280F5E4F5E2E5E260
:100E4500C394FD500405E280F5E4F5E2E5E2C394C0
:100E5500FD500405E280F5E4F5E2E5E2C394FD50BA
:100E65000405E280F57D107F40120F0D53A1DFE5EB
:080E7500A1543FF5A1020E7D1E
:100E7D00C29CE4F5AC539CEFC29FD29E439C0843A9
:100E8D009C4053877F439C0143B94043B91043B9FC
:100E9D002053B97F759AF3759BF343B98053A4F72B
:0D0EAD0075AC0753A4F7F5ACD29CD2992286
:100D2500BB010CE58229F582E5833AF583E0225083
:100D350006E92582F8E622BBFE06E92582F8E222CD
:0D0D4500E58229F582E5833AF583E49322E7
:100D5200F8BB010DE58229F582E5833AF583E8F0D7
:100D6200225006E92582C8F622BBFE05E92582C883
:020D7200F2226B
:10080000E517240BF8E60517227808300702780B65
:10081000E475F001120D9F020D742000EB7F2ED2C3
:10082000008018EF540F2490D43440D4FF30040BD0
:10083000EF24BFB41A0050032461FFE518600215CD
:1008400018051BE51B7002051A30070D7808E475C2
:10085000F001120D9FEF020D8D020F6C7403D20791
:100860008003E4C207F5178B088A09890AE4F518A2
:10087000F51AF51BE51860077F2012083B80F57517
:1008800019FFC201C200C202C203C205C206C208E9
:10089000120809FF700D3007057F0012084CAF1BCE
:1008A000AE1A22B4255FC2D5C204120809FF24D0B3
:1008B000B40A00501A75F00A781830D50508B6FF4A
:1008C0000106C6A426F620D5047002D20380D924DE
:1008D000CFB41A00EF5004C2E5D204020A4CD20190
:1008E00080C6D20080C0D20280BCD2D580BAD205E8
:1008F00080B47F2012083B2002077401B518004025
:10090000F1120800FF12083B020874D208D20680D8
:1009100095120800FB120800FA120800F94A4B7001
:1009200006791D7A0B7BFF20022EE518602A7E00D7
:100930008E82758300120D2560060EEE651970F02B
:10094000C2D5EBC0E0EAC0E0E9C0E0EE120A93D005
:10095000E0F9D0E0FAD0E0FB120D74FF60AAEBC022
:10096000E0EAC0E0E9C0E012083BD0E02401F9D0A1
:10097000E03400FAD0E0FBE5190460DCD519D98039
:10098000877BFF7A0A798FD202809C791080027966
:1009900008C206C2088008D2D5790A8004790AC242
:1009A000D5E519047002F519E4FAFDFEFF120800FE
:1009B000FC7B08200113120800FD7B1030000A1296
:1009C0000800FE120800FF7B20EC3382D592D55040
:1009D00013C3E43000069FFFE49EFEE42001039D64
:1009E000FDE49CFCE4CBF8C201EC700CCFCECDCC86
:1009F000E824F8F870F38017C3EF33FFEE33FEED11
:100A000033FDEC33FCEB33FB994002FB0FD8E9EBF1
:100A1000300105F8D0E0C448B201C0E00AEC4D4E08
:100A20004F78207B0070C2EAB5190040BCC0E012CC
:100A30000A95D0F0D0E0200104C4C0E0C4B201C0E7
:100A4000F0120824D0F0D5F0EB020874120DAF09B3
:100A50001153098B5808E24C08DE42098F4F099761
:0F0A60004409974908F743099D550981460981C3
:100A6F00450981470B3D5008E62D08EA2E090D2B4D
:100A7F0008EE23090B200B262A08A64800000905BB
:100A8F003F3F3F00790AA2D5200314300509B91062
:100A9F00020404B9080104A2D52006025001042063
:100AAF0002689202B518005034C0E07F203003195D
:100ABF007F30A20272067205500F120AECC202C2F8
:100ACF0006C205C2087F30800F300503E9C0E0126F
:100ADF00083B300503D0E0F9D0E0B518CC3005174E
:100AEF007F30B9100C12083B7F583004077F788095
:100AFF0003B9080312083B3002057F2D02083B7F24
:100B0F00202008F87F2B2006F322920280CF286E38
:100B1F00756C6C2900D2011208003001F8C20178FF
:100B2F001830D50108F60208A62D5043495812086F
:100B3F00002403B405004001E4900B389312082CF5
:0D0B4F00743A12082CD20375180402098BA9
:100D7400BB010689828A83E0225002E722BBFE027D
:090D8400E32289828A83E49322B0
:100D8D00BB010689828A83F0225002F722BBFE0145
:020D9D00F3223F
:100D9F00FAE6FB0808E6F925F0F618E6CA3AF62255
:100DAF00D083D082F8E4937012740193700DA3A3D3
:100DBF0093F8740193F5828883E4737402936860E7
:060DCF00EFA3A3A380DFE7
:00000001FF
