:03000000021425C2
:0C142500787FE4F6D8FD75817D0210FF91
:100E640052465F4348203A20253032580D0A00523A
:100E7400465F5345545550203A20253032580D0AC8
:100E840000537461747573203A20253032580D0A6A
:100E940000454E5F4141203A20253032580D0A006A
:100EA40044594E5044203A20253032580D0A004609
:100EB400454154555245203A20253032580D0A00F8
:100EC40052585F414444525F5031203A200025304B
:100ED4003258000D0A0054585F41444452203A20CD
:100EE4000052585F50575F5031203A202530325815
:100EF4000D0A00454E5F525841444452203A202581
:100F04003032580D0A00434F4E464947203A2025B7
:100F14003032580D0A00525044203A2025303258BD
:100F24000D0A002530325820006E726620696E6901
:0D0F3400740A00E0E0F1F1E0F1F1F0F0E00E
:1013A800A2AC9209C2AC8F993099FDC299A2099258
:0313B800AC7F0007
:0113BB00220F
:07133F007FC81213467FC8AE
:10134600EF60110000000000000000000000000037
:05135600001F80EC22E5
:10135B00AD07AC06ED4C601212133F12133F7FC862
:0B136B00121346ED1D70ED1C80EA22FD
:1013200043955475AC015392ABE4F5AC53B1F7431C
:0F133000B2084391B253924D43914043924022F1
:0814310075C7587F64021346E1
:1012DB00438540438590E58554FC4401F585E4F551
:1012EB00845385F75385DF5385FB75AC0153A4F706
:0312FB00F5AC222D
:0D1418008F86E58430E7FB438480AF862299
:08114A007B007A0079437C0070
:0A1152008B738A7489758C768D7793
:10115C00E4FDFCC2B3C3ED9577EC95765026AB73EA
:10116C00AA74A9758D828C83120C6BFF121418ABA8
:10117C0073AA74A9758D828C83EF120C980DBD0027
:06118C00010C80D1D2B37A
:01119200223A
:05143900D291D2B322A4
:04120C007D017F06DB
:021210008D6AE5
:10121200EF541FF5437F017E00D3EF956A7480F887
:101222006E98500D74432FF876FF0FBF00010E80A9
:10123200E87B007A007943E56A2401FDE433FC028D
:02124200115247
:0211D0008D721E
:1011D200EF541F4420F5437F017E00D3EF957274D4
:1011E20080F86E98501374212FF8E6FD74432FF89F
:1011F200A6050FBF00010E80E27B007A007943E56D
:0A120200722401FDE433FC021152D6
:011441002288
:1013BC00EFC3947F50048F22800375227F7D017FC1
:0413CC00050211D035
:1013D00012120CAF445307D74307208F227D017FA1
:0413E000060211D020
:0212B1008F08A4
:1012B30012120CAF445307F9E508B40205430706BD
:1012C300800DE508B4010543070480034307028F3B
:0812D300227D017F060211D00B
:1013F800EF600575223F8003E4F5227D017F01023D
:0214080011D001
:1013E4007D017F1D121210E5444402F5227D017F28
:0413F4001D0211D0F5
:1012FE007D017F1D121210E5444403F5227D017F0E
:10130E001D1211D07D017F1C121210E5444401F50F
:02131E00222289
:101244008F09120C52F522900001120C6BF52390B9
:101254000002120C6BF524900003120C6BF5259020
:101264000004120C6BF5267D057F0B1211D075223C
:08127400207D017F120211D060
:100D02007D017F051212107BFF7A0E7964756D00EA
:100D120085446E12086212120C7BFF7A0E7973758B
:100D22006D0085446E1208627D017F071212107BEE
:100D3200FF7A0E7985756D0085436E1208627D011A
:100D42007F011212107BFF7A0E7995756D00854432
:100D52006E1208627D017F1C1212107BFF7A0E79DF
:100D6200A4756D0085446E1208627D017F1D12120A
:100D7200107BFF7A0E79B3756D0085446E1208629E
:100D82007D057F0B1212107BFF7A0E79C412086266
:100D9200E4F568F5697BFF7A0E79D274442569F827
:100DA200E6756D00F56E1208620569E56970020567
:100DB20068C39405E5686480948040D97BFF7A0E0D
:100DC20079D71208627D057F101212107BFF7A0E0E
:100DD20079DA120862E4F568F5697BFF7A0E79D256
:100DE20074442569F8E6756D00F56E1208620569AE
:100DF200E56970020568C39405E5686480948040E3
:100E0200D97BFF7A0E79D71208627D017F12121206
:100E1200107BFF7A0E79E5756D0085446E120862CB
:100E22007D017F021212107BFF7A0E79F7756D0039
:100E320085446E1208627D01E4FF1212107BFF7A74
:100E42000F790A756D0085446E1208627D017F0973
:100E52001212107BFF7A0F791A756D0085446E02AB
:020E6200086224
:011442002287
:100F410078687C007D007BFF7A0F79377E007F0512
:100F5100120C2C786D7C007D007BFF7A0F793C7E32
:100F6100007F05120C2C75225A7D017F051211D0CC
:100F71007522247D017F061211D075223F7D017FEC
:100F8100011211D075223F7D017F1C1211D07522F3
:100F9100067D017F1D1211D0E4FFFEC374049F245E
:100FA10068F8E6FD74222FF8A6050FBF00010EEFC9
:100FB10064054E70E67D057F0B1211D0E4FEFFC380
:100FC10074049F246DF8E6FD74222FF8A6050FBF67
:100FD10000010EEF64054E70E67D057F101211D001
:100FE1007522207D017F121211D07522037D017FB0
:0E0FF100021211D075220B7D01E4FF0211D017
:1010A70075436175680075690174432569F876FFB2
:1010B7000569E569700205686422456870EB7D2162
:1010C70012114AE4F568F5697BFF7A0F79277443B3
:1010D7002569F8E6756D00F56E1208620569E56920
:1010E70070020568C39421E5686480948040D97BC9
:0810F700FF7A0E79D7020862AE
:10127C00E4F5687D017F07121210E54330E6037533
:10128C0068017522407D017F071211D07D017F0717
:10129C00121210E54330E50A7522207D017F0712FA
:0412AC0011D0AF6846
:0112B000221B
:0E140A007543607544FF7D0212114AAF442203
:1010FF00756401756501120FFF121320121431125E
:10110F0012DB121439120F41120D027BFF7A0F7985
:10111F002D120862D291120D0212127CEF70087F0D
:10112F0001FE12135B80F212140AEF60E71210A790
:0B113F00C2917F017E0012135B80D97B
:1013760043E78075E504E4F5E38FE48DE275E64620
:0913860075E6B9F5E553E77F2295
:10138F0043E78075E505E4F5E38FE475E64675E61A
:09139F00B9F5E553E77FAFE22246
:0300030002143EA6
:03143E00C289322E
:100FFF007F4C12138FE5E2545F4480F5E2ADE27F40
:10100F004C1213767F4012138F43E210ADE27F40F4
:10101F001213767FC712138F53E27FADE27FC71291
:10102F001376E4F5E2E5E2C39420500405E280F57F
:10103F007F4012138F53E2FCADE27F401213767D97
:10104F00107FC7121376E4FD7F43121376E4F5E2A7
:10105F00E5E2C394FD500405E280F5E4F5E2E5E234
:10106F00C394FD500405E280F5E4F5E2E5E2C39494
:10107F00FD500405E280F5E4F5E2E5E2C394FD508E
:10108F000405E280F57D107F4012137653A1DFE552
:08109F00A1543FF5A1021193D9
:10119300C29CE4F5AC539CEFC29FD29E439C084390
:1011A3009C4053877F439C0143B94043B91043B9E3
:1011B3002053B97F759AF3759BF343B98053A4F712
:0D11C30075AC0753A4F7F5ACD29CD299226D
:100B5C00E709F608DFFA8046E709F208DFFA803E7B
:100B6C0088828C83E709F0A3DFFA8032E309F60868
:100B7C00DFFA8078E309F208DFFA807088828C83D0
:100B8C00E309F0A3DFFA806489828A83E0A3F60884
:100B9C00DFFA805889828A83E0A3F208DFFA804C5E
:100BAC0080D280FA80C680D4806980F28033801035
:100BBC0080A680EA809A80A880DA80E280CA80339E
:100BCC0089828A83ECFAE493A3C8C582C8CCC58316
:100BDC00CCF0A3C8C582C8CCC583CCDFE9DEE780E6
:100BEC000D89828A83E493A3F608DFF9ECFAA9F065
:100BFC00EDFB2289828A83ECFAE0A3C8C582C8CCBB
:100C0C00C583CCF0A3C8C582C8CCC583CCDFEADED3
:100C1C00E880DB89828A83E493A3F208DFF980CC35
:100C2C0088F0EF60010E4E60C388F0ED2402B4042E
:100C3C000050B9F582EB2402B4040050AF232345D5
:060C4C008223900BAC7343
:100C5200BB010689828A83E0225002E722BBFE02A0
:090C6200E32289828A83E49322D3
:100C6B00BB010CE58229F582E5833AF583E022503E
:100C7B0006E92582F8E622BBFE06E92582F8E22288
:0D0C8B00E58229F582E5833AF583E49322A2
:100C9800F8BB010DE58229F582E5833AF583E8F092
:100CA800225006E92582C8F622BBFE05E92582C83E
:020CB800F22226
:10080000E579246DF8E6057922786A300702786D7B
:10081000E475F001120CCC020C522000EB7F2ED2BA
:10082000008018EF540F2490D43440D4FF30040BD0
:10083000EF24BFB41A0050032461FFE57A6002156B
:100840007A057DE57D7002057C30070D786AE475D8
:10085000F001120CCCEF020CBA0213A87403D207F9
:100860008003E4C207F5798B6A8A6B896CE4F57AB8
:10087000F57CF57DE57A60077F2012083B80F575F1
:100880007BFFC201C200C202C203C205C206C20887
:10089000120809FF700D3007057F0012084CAF7D6C
:1008A000AE7C22B4255FC2D5C204120809FF24D051
:1008B000B40A00501A75F00A787A30D50508B6FFE8
:1008C0000106C6A426F620D5047002D20380D924DE
:1008D000CFB41A00EF5004C2E5D204020A4CD20190
:1008E00080C6D20080C0D20280BCD2D580BAD205E8
:1008F00080B47F2012083B2002077401B57A0040C3
:10090000F1120800FF12083B020874D208D20680D8
:1009100095120800FB120800FA120800F94A4B7001
:1009200006791D7A0B7BFF20022EE57A602A7E0075
:100930008E82758300120C6B60060EEE657B70F084
:10094000C2D5EBC0E0EAC0E0E9C0E0EE120A93D005
:10095000E0F9D0E0FAD0E0FB120C52FF60AAEBC045
:10096000E0EAC0E0E9C0E012083BD0E02401F9D0A1
:10097000E03400FAD0E0FBE57B0460DCD57BD98075
:10098000877BFF7A0A798FD202809C791080027966
:1009900008C206C2088008D2D5790A8004790AC242
:1009A000D5E57B047002F57BE4FAFDFEFF1208003A
:1009B000FC7B08200113120800FD7B1030000A1296
:1009C0000800FE120800FF7B20EC3382D592D55040
:1009D00013C3E43000069FFFE49EFEE42001039D64
:1009E000FDE49CFCE4CBF8C201EC700CCFCECDCC86
:1009F000E824F8F870F38017C3EF33FFEE33FEED11
:100A000033FDEC33FCEB33FB994002FB0FD8E9EBF1
:100A1000300105F8D0E0C448B201C0E00AEC4D4E08
:100A20004F78207B0070C2EAB57B0040BCC0E0126A
:100A30000A95D0F0D0E0200104C4C0E0C4B201C0E7
:100A4000F0120824D0F0D5F0EB020874120CDC0987
:100A50001153098B5808E24C08DE42098F4F099761
:0F0A60004409974908F743099D550981460981C3
:100A6F00450981470B3D5008E62D08EA2E090D2B4D
:100A7F0008EE23090B200B262A08A64800000905BB
:100A8F003F3F3F00790AA2D5200314300509B91062
:100A9F00020404B9080104A2D52006025001042063
:100AAF0002689202B57A005034C0E07F20300319FB
:100ABF007F30A20272067205500F120AECC202C2F8
:100ACF0006C205C2087F30800F300503E9C0E0126F
:100ADF00083B300503D0E0F9D0E0B57ACC300517EC
:100AEF007F30B9100C12083B7F583004077F788095
:100AFF0003B9080312083B3002057F2D02083B7F24
:100B0F00202008F87F2B2006F322920280CF286E38
:100B1F00756C6C2900D2011208003001F8C20178FF
:100B2F007A30D50108F60208A62D5043495812080D
:100B3F00002403B405004001E4900B389312082CF5
:0D0B4F00743A12082CD203757A0402098B47
:100CBA00BB010689828A83F0225002F722BBFE0119
:020CCA00F32213
:100CCC00FAE6FB0808E6F925F0F618E6CA3AF62229
:100CDC00D083D082F8E4937012740193700DA3A3A7
:100CEC0093F8740193F5828883E4737402936860BB
:060CFC00EFA3A3A380DFBB
:00000001FF
