:03000000020006F5
:08005F00E4F530F53102000365
:03000300020705EC
:20006700AE828E96A2ACE433FFC2AC85969910990280FBEF24FF92AC90000022AF82EF60F7
:20008700031F80FA22AE82AF83EE4F602D7582C8C007C0061200837582C81200837582C87B
:2000A7001200837582C81200837582C8120083D006D0071EBEFF011F80CF2243955475AC96
:2000C700015392AB75AC0053B1F743B2084391B253924D4391404392402275C7587582647D
:2000E700020083438540438590E58554FC4401F5857584005385F75385DF5385FB75AC0127
:2001070053A4F775AC0022858286E58430E7FB4384808586822285823485833585F036C2C4
:20012700B37B007C008B018C02C3E99532EA9533503FEB2534F8EC3535F9AA3688828983BF
:200147008AF01211E0F582C004C003C002C001C00012010EAF82D000D001D002D003D0046E
:20016700888289838AF0EF1208BA0BBB00B70C80B4D2B322C291C2B322AF8253071F90009D
:2001870000EFF07E017F00AC377D00C3EC9EED64808FF063F08095F04014EE2400F582EF5A
:2001A7003400F58374FFF00EBE00DC0F80D974012CF532E43DF53390000075F00002011DF3
:2001C700AF82741F5F4420900000F07E017F00AC387D00C3EC9EED64808FF063F08095F0BD
:2001E7004028EE2400FAEF3400FB8E0119E9F83395E0F9E82421F582E93400F583E08A8217
:200207008B83F00EBE00C80F80C574012CF532E43DF53390000075F00002011D75370175A9
:200227008205120180900001E0FF7E00C007C0067400C0E07412C0E07480C0E01208FDE558
:200247008124FBF581753701758206120180900001E0FF7E00C007C006740FC0E07412C060
:20026700E07480C0E01208FDE58124FBF581753701758207120180900000E0FF7E00C007FF
:20028700C0067421C0E07412C0E07480C0E01208FDE58124FBF58175370175820112018058
:2002A700900001E0FF7E00C007C0067431C0E07412C0E07480C0E01208FDE58124FBF581AB
:2002C70075370175821C120180900001E0FF7E00C007C0067440C0E07412C0E07480C0E03B
:2002E7001208FDE58124FBF58175370175821D120180900001E0FF7E00C007C006744FC093
:20030700E07412C0E07480C0E01208FDE58124FBF58175370575820B1201807460C0E074FC
:2003270012C0E07480C0E01208FD1581158115817E007F008E050DED3395E0FCED2400F563
:2003470082EC3400F583E0FD7C00C007C006C005C004746EC0E07412C0E07480C0E01208B7
:20036700FDE58124FBF581D006D0070EBE00010FC3EE9405EF6480948040B97473C0E074D0
:2003870012C0E07480C0E01208FD1581158115817537057582101201807476C0E07412C01C
:2003A700E07480C0E01208FD1581158115817E007F008E050DED3395E0FCED2400F582EC47
:2003C7003400F583E0FD7C00C007C006C005C004746EC0E07412C0E07480C0E01208FDE5C3
:2003E7008124FBF581D006D0070EBE00010FC3EE9405EF6480948040B97473C0E07412C060
:20040700E07480C0E01208FD158115811581753701758212120180900001E0FF7E00C0078A
:20042700C0067481C0E07412C0E07480C0E01208FDE58124FBF58175370175820212018055
:20044700900001E0FF7E00C007C0067493C0E07412C0E07480C0E01208FDE58124FBF581A7
:20046700753701758200120180900001E0FF7E00C007C00674A6C0E07412C0E07480C0E04F
:200487001208FDE58124FBF581753701758209120180900001E0FF7E00C007C00674B6C09E
:2004A700E07412C0E07480C0E01208FDE58124FBF58122227539E0753AE0753BF1753CF1E5
:2004C700753DE0753EF1753FF17540F07541F07542E0900021745AF075380175820512012C
:2004E700C79000217424F07538017582061201C7900021743FF07538017582011201C7900C
:200507000021743FF075380175821C1201C79000217406F075380175821D1201C77E007FC1
:2005270000EE2421F582EF3400F5838E057404C39D2439F9E7F00EBE00010FC3EE9405EFC2
:200547006480948040DB75380575820B1201C77E007F00EE2421F582EF3400F5838E0574AA
:2005670004C39D243EF9E7F00EBE00010FC3EE9405EF6480948040DB7538057582101201EA
:20058700C79000217420F07538017582121201C79000217403F07538017582021201C7909E
:2005A7000021740BF07538017582000201C79000007461F07E017F00EE2400F582EF340036
:2005C700F58374FFF00EBE00010FC374219E74808FF063F08095F050DF753221753300906D
:2005E700000075F00012011D7E007F00EE2400F582EF3400F583E0FD7C00C007C006C00593
:20060700C00474C3C0E07412C0E07480C0E01208FDE58124FBF581D006D0070EBE00010FE3
:20062700C3EE9421EF6480948040C17473C0E07412C0E07480C0E01208FD1581158115814B
:20064700227F00753701758207C007120180D007900000E020E607900000E0E460027F0163
:20066700753701758207C007120180D007900000E030E5139000217420F07538017582071E
:20068700C0071201C7D0078F82229000007460F090000174FFF0753202753300900000750A
:2006A700F00012011D900001E0F58222753701758200120180900001E0FF43070190002166
:2006C700EFF07538017582001201C79000217470F07538017582071201C7D29122C291755D
:2006E7003701758200120180900001E0FF5307FE900021EFF07538017582000201C7120751
:2007070077C2B51200C21200E11200EA12017B1204BB1202231206B3120648E582700890F1
:16072700000112008C80F1120691E58260E71206E41205B580DF2E
:2012000052465F4348203A20253032580D0A0052465F5345545550203A20253032580D0AE4
:2012200000537461747573203A20253032580D0A00454E5F4141203A20253032580D0A00D6
:2012400044594E5044203A20253032580D0A0046454154555245203A20253032580D0A0023
:2012600052585F414444525F5031203A200025303258000D0A0054585F41444452203A205A
:201280000052585F50575F5031203A20253032580D0A00454E5F525841444452203A2025F8
:2012A0003032580D0A00434F4E464947203A20253032580D0A00525044203A2025303258F8
:0912C0000D0A002530325820000F
:20073D00AF8243E78075E50475E3008FE48572E275E64675E6B975E50053E77F22AF824361
:1A075D00E78075E50575E3008FE475E64675E6B975E50053E77F85E282221E
:2007770075824812075AE58254DFF57275824812073D75824812075AE58254BFF572758290
:200797004812073D75824C12075A75824C12075AC0AC75AC005395EB85959575AC01539222
:2007B700EB439214D0ACC0AC75AC005395EB85959575AC015392EB439214D0AC53B1FC85E7
:2007D700B1B153B2FC43B238C0AC75AC0085B3B385B3B375AC02859292439201D0ACC0AC85
:2007F70075AC0153B5FC85B5B575AC035392FC439203D0ACC0AC75AC0243B404D0ACC0AC02
:2008170075AC0243B408D0ACC0AC75AC0243B410D0ACC0AC75AC0243B420D0ACC0AC75AC62
:200837000243B440D0ACC0AC75AC0243B480D0ACC0AC75AC0343B402D0ACC0AC75AC08854B
:200857009292D0ACC0AC75AC09859292D0ACC0AC75AC07859292D0ACC0AC75AC0A8592922D
:20087700D0AC02087CC29C75AC00539CEFC29FD29E539CF7439C4053877F439C0143B940B7
:2008970043B91043B92053B97F759AF3759BF343B98053A4F775AC0753A4F775AC00D29C7A
:0308B700D29922B1
:06003500E478FFF6D8FD9F
:200013007900E94400601B7A009012D4784275A000E493F2A308B8000205A0D9F4DAF2756C
:02003300A0FF2C
:1B08BA0020F71130F6138883A88220F509F6A8837583002280FEF280F5F0223D
:20003B007800E84400600A790075A000E4F309D8FC7842E84400600C7901900000E4F0A382
:04005B00D8FCD9FAFA
:2008D500C0718581717E008E83120067D0712285825485835585F056E4F551F552F553852F
:2008F50043579008D50209C3C071E581F57124FBFF8F57E4F551F552F553E57124FBF88661
:10091500540886550886569008D51209C3D0712209
:20092500AF82C047C048C0491209328007C045C0468F8222158115811581054FE4B54F0257
:20094500055022AF8274302FFF24C6500B74072FFFE54460034307208F82020925E582FF8D
:20096500C4540FF582C007120948D007740F5FF582020948858272AB4AAC4BAD4CAE4DAA24
:200985004E7574208A07EF2FF573EE2354014573FAEB2BFBEC33FCED33FDEE33FEC3EA9522
:2009A500724008EAC39572FA430301E57414FF8F7470D18B4A8C4B8D4C8E4D8A4E22858272
:2009C50045858346855147855248855349E4F54FF550AD54AE55AF568D828E838FF01211EA
:2009E500E0FC74012DF554E43EF5558F56ECFF70030211A4BF2502800302119C7E007D00B2
:200A05008E588E597A007B008E5A7C008E5BE4F563F564755CFF755DFF8554658555668589
:200A250056678565828566838567F01211E0F568A3858265858366856554856655856756A1
:200A45007425B56808856882120925808574D025684003020B05E56824C65003020B0574E9
:200A6500FFB55C55B55D5285637285647390000AC006C005C004C003C0021211C38582692E
:200A850085836AD002D003D004D005D00685686B756C00E56B2569F56BE56C356AF56CE50E
:200AA5006B24D0F563E56C34FFF564E56345646003020A277D01020A27855C72855D73902D
:200AC500000AC006C005C004C003C0021211C385826B85836CD002D003D004D005D00685BE
:200AE5006869756A00E569256BF56BE56A356CF56CE56B24D0F55CE56C34FFF55D020A2714
:200B0500742EB5681574FFB55C05B55D028003020A27E4F55CF55D020A27749F2568500EF1
:200B2500E568248540085368DF75440180037544007420B56803020BD1742BB56803020B84
:200B4500CB742DB5680280797442B56803020BD77443B56803020BE27444B56803020E2F75
:200B65007446B56803020E457448B56803020A277449B56803020E2F744AB56803020A2705
:200B8500744CB568028050744FB56803020E367450B56803020D7A7453B568028076745467
:200BA500B56803020A277455B56803020E3B7458B56803020E40745AB56803020A27020E3C
:200BC500497E01020A27755801020A27755901020A277B01020A27755A01020A27EB600A0B
:200BE500E55714F98957876B800DE55724FEF569856957A969876B856B82C006C005C00482
:200C0500C003C002120925D002D003D004D005D006020E6BE55724FDF56B856B57A96B87CC
:200C250065098766098767191985654A85664B85674C8565828566838567F0C006C005C088
:200C450004C003C0021211AB85826B85836CD002D003D004D005D00674FFB55C09B55D0689
:200C6500856B5C856C5DEE704FC3E56B9563E56C95645044E563C3956BF569E564956CF597
:200C85006A856965856A66156974FFB56902156AE5654566601C758220C006C005C004C016
:200CA50003C002120925D002D003D004D005D00680CF856963856A64855C69855D6A854AAE
:200CC50082854B83854CF01211E0F565856560604FC3E495697480856AF063F08095F05003
:200CE5003F156974FFB56902156A856082C006C005C004C003C002120925D002D003D0042C
:200D0500D005D006854A65854B66854C670565E4B56502056685654A85664B85674C809EEC
:200D2500EE7003020E6BC3E56B9563E56C95644003020E6BE563C3956BF56BE564956CF515
:200D45006C856B69856C6A156B74FFB56B02156CE569456A7003020E65758220C006C00551
:200D6500C004C003C002120925D002D003D004D005D00680CCE55724FDF569856957A96963
:200D85008765098766098767191985654A85664B85674C854C6174802561500575694380FF
:200DA5001974A025615005756950800E74C0256150057569498003756958856982C006C085
:200DC50005C004C003C00212092575823A120925758230120925758278120925D002D00354
:200DE500D004D005D0067449B5690280217450B56902801A854B82C006C005C004C003C04F
:200E050002120962D002D003D004D005D006854A82C006C005C004C003C002120962D002B6
:200E2500D003D004D005D006803C7A01755B0A8035755B088030755B0A802B755B10802602
:200E45007C018022856882C006C005C004C003C002120925D002D003D004D005D006800641
:200E6500856B63856C64EC6068E55724FCFC8C578C01876D09876E09876F0987701919190D
:200E8500856D4A856E4B856F4C85704D754AC9754B12754C80854A6D854B6E854C6F740187
:200EA500256DF565E4356EF566856F6785654A85664B85674C856D82856E83856FF0121171
:200EC500E0FC8C6D70030209D7856D8212092580C4E55B70030209D7EB603FE55714F989FA
:200EE5005787048C6D756E00756F00757000856D4A856E4B856F4C85704DEA6003020F8884
:200F0500854A6D756E00756F00757000856D4A856E4B856F4C85704D8069E55A6025E557FF
:200F250024FCFC8C578C01876D09876E09876F098770191919856D4A856E4B856F4C857035
:200F45004D8040E55724FEFC8C578C018703098704198B6DECF56E3395E0F56FF570856DD4
:200F65004A856E4B856F4C85704DEA7016854A6D854B6EF56FF570856D4A856E4B856F4CF5
:200F850085704DEA602AE54D30E723C3E4954AF56DE4954BF56EE4954CF56FE4954DF570C7
:200FA500856D4A856E4B856F4C85704D80027A007C01790DE4F56DF56E754E00855B82C0A3
:200FC50006C005C004C002C001120979D001D002D004D005D006EC700DE54EC4F56BE7FBA2
:200FE500456BF7198002A74E056DE4B56D02056EECB40100E433FCE54A454B454C454D70C2
:20100500B88962856D5E856E5FE56345647005756301F564ED7043EE704085636D85646E04
:20102500AB5E0B8B6B756C00C3E56B956DE56C956E5021758220C006C005C004C0021209A3
:2010450025D002D004D005D006156D74FFB56D02156E80CC856D63856E64EA601D75822DF6
:20106500C006C005C004120925D004D005D006156374FFB5630215648046E55E455F604092
:20108500E558601D75822BC006C005C004120925D004D005D006156374FFB5630215648063
:2010A5001FE559601B758220C006C005C004120925D004D005D006156374FFB563021564B0
:2010C500EE703C85636D85646EAA6DAB6E156D74FFB56D02156EC3E55E9AE55F9B5041EDFC
:2010E50060067A307B0080047A207B008A82C006C005C004120925D004D005D00680CAC3A0
:20110500E55E9563E55F9564500FE563C3955EF56BE564955FF56C800DE4F56BF56C80063F
:20112500856D6B856E6CA962855E6D855F6EAA6DAD6E156D74FFB56D02156EEA4D602EECC2
:20114500B40100E433FC700A09E7C4540FFD8D4E80078705740F5DF54E854E82C006C00444
:20116500C001120948D001D004D00680C1EE70030209D7AD6BAE6C8D038E041DBDFF011EFB
:20118500EB4C70030209D7758220C006C005120925D005D00680E08F821209250209D78519
:0611A5004F8285508322F9
:0B12C9003C4E4F20464C4F41543E006D
:1811AB00AA82AB831211E06003A380F8C3E5829AF582E5839BF5832279
:1D11C300E5828572F0A4C582C0F08573F0A4D0F025F0C5838572F0A42583F58322B0
:0D0006007581741211FCE582600302000395
:1C11E00020F71430F6148883A88220F507E6A88375830022E280F7E49322E0221E
:0411FC0075820022D6
:00000001FF
