:03000000020006F5
:08005F00E4F530F53102000365
:03000300020705EC
:10006700AE828E96A2ACE433FFC2AC859699109906
:100077000280FBEF24FF92AC90000022AF82EF607A
:10008700031F80FA22AE82AF83EE4F602D7582C8C0
:10009700C007C0061200837582C81200837582C824
:1000A7001200837582C81200837582C8120083D03C
:1000B70006D0071EBEFF011F80CF2243955475ACA3
:1000C700015392AB75AC0053B1F743B2084391B2F9
:1000D70053924D4391404392402275C758758264AD
:1000E700020083438540438590E58554FC4401F530
:1000F700857584005385F75385DF5385FB75AC0100
:1001070053A4F775AC0022858286E58430E7FB436C
:1001170084808586822285823485833585F036C240
:10012700B37B007C008B018C02C3E99532EA9533DF
:10013700503FEB2534F8EC3535F9AA3688828983A8
:100147008AF01211E1F582C004C003C002C001C0E9
:100157000012010EAF82D000D001D002D003D0042C
:10016700888289838AF0EF1208BB0BBB00B70C802B
:10017700B4D2B322C291C2B322AF8253071F9000F9
:1001870000EFF07E017F00AC377D00C3EC9EED648D
:10019700808FF063F08095F04014EE2400F582EF35
:1001A7003400F58374FFF00EBE00DC0F80D97401B4
:1001B7002CF532E43DF53390000075F00002011D87
:1001C700AF82741F5F4420900000F07E017F00AC77
:1001D700387D00C3EC9EED64808FF063F08095F06E
:1001E7004028EE2400FAEF3400FB8E0119E9F833BA
:1001F70095E0F9E82421F582E93400F583E08A8265
:100207008B83F00EBE00C80F80C574012CF532E455
:100217003DF53390000075F00002011D753701753B
:100227008205120180900001E0FF7E00C007C00632
:100237007401C0E07412C0E07480C0E01208FEE5EB
:100247008124FBF5817537017582061201809000C4
:1002570001E0FF7E00C007C0067410C0E07412C042
:10026700E07480C0E01208FEE58124FBF581753754
:1002770001758207120180900000E0FF7E00C00731
:10028700C0067422C0E07412C0E07480C0E0120897
:10029700FEE58124FBF58175370175820112018026
:1002A700900001E0FF7E00C007C0067432C0E07412
:1002B70012C0E07480C0E01208FEE58124FBF581DE
:1002C70075370175821C120180900001E0FF7E00E6
:1002D700C007C0067441C0E07412C0E07480C0E07B
:1002E7001208FEE58124FBF58175370175821D1221
:1002F7000180900001E0FF7E00C007C0067450C077
:10030700E07412C0E07480C0E01208FEE58124FBAF
:10031700F58175370575820B1201807461C0E07431
:1003270012C0E07480C0E01208FE158115811581A6
:100337007E007F008E050DED3395E0FCED2400F582
:1003470082EC3400F583E0FD7C00C007C006C005E1
:10035700C004746FC0E07412C0E07480C0E012087B
:10036700FEE58124FBF581D006D0070EBE00010F04
:10037700C3EE9405EF6480948040B97474C0E07450
:1003870012C0E07480C0E01208FE15811581158146
:100397007537057582101201807477C0E07412C03A
:1003A700E07480C0E01208FE1581158115817E007A
:1003B7007F008E050DED3395E0FCED2400F582EC12
:1003C7003400F583E0FD7C00C007C006C005C0040B
:1003D700746FC0E07412C0E07480C0E01208FEE5DC
:1003E7008124FBF581D006D0070EBE00010FC3EEB6
:1003F7009405EF6480948040B97474C0E07412C0AF
:10040700E07480C0E01208FE1581158115817537EB
:1004170001758212120180900001E0FF7E00C00783
:10042700C0067482C0E07412C0E07480C0E0120895
:10043700FEE58124FBF58175370175820212018083
:10044700900001E0FF7E00C007C0067494C0E0740E
:1004570012C0E07480C0E01208FEE58124FBF5813C
:10046700753701758200120180900001E0FF7E0060
:10047700C007C00674A7C0E07412C0E07480C0E073
:100487001208FEE58124FBF5817537017582091293
:100497000180900001E0FF7E00C007C00674B7C06E
:1004A700E07412C0E07480C0E01208FEE58124FB0E
:1004B700F58122227539E0753AE0753BF1753CF11B
:1004C700753DE0753EF1753FF17540F07541F0758A
:1004D70042E09000217402F075380175820512011F
:1004E700C79000217424F07538017582061201C780
:1004F700900021743FF07538017582011201C79091
:100507000021743FF075380175821C1201C79000F5
:10051700217406F075380175821D1201C77E007FB0
:1005270000EE2421F582EF3400F5838E057404C3B1
:100537009D2439F9E7F00EBE00010FC3EE9405EFD5
:100547006480948040DB75380575820B1201C77E85
:10055700007F00EE2421F582EF3400F5838E0574C9
:1005670004C39D243EF9E7F00EBE00010FC3EE94CD
:1005770005EF6480948040DB7538057582101201A1
:10058700C79000217420F07538017582121201C7D7
:100597009000217403F07538017582021201C7902B
:1005A7000021740BF07538017582000201C79000B5
:1005B700007461F07E017F00EE2400F582EF3400C5
:1005C700F58374FFF00EBE00010FC374219E748083
:1005D7008FF063F08095F050DF753221753300900E
:1005E700000075F00012011D7E007F00EE2400F56B
:1005F70082EF3400F583E0FD7C00C007C006C0052C
:10060700C00474C4C0E07412C0E07480C0E0120873
:10061700FEE58124FBF581D006D0070EBE00010F51
:10062700C3EE9421EF6480948040C17474C0E07479
:1006370012C0E07480C0E01208FE15811581158193
:10064700227F00753701758207C007120180D00726
:10065700900000E020E607900000E0E460027F01E0
:10066700753701758207C007120180D00790000017
:10067700E030E5139000217420F07538017582078A
:10068700C0071201C7D0078F82229000007460F064
:1006970090000174FFF07532027533009000007509
:1006A700F00012011D900001E0F5822275370175F7
:1006B7008200120180900001E0FF430701900021B2
:1006C700EFF07538017582001201C7900021747030
:1006D700F07538017582071201C7D29122C2917550
:1006E7003701758200120180900001E0FF5307FE79
:1006F700900021EFF07538017582000201C71207DB
:1007070078C2B51200C21200E11200EA12017B1290
:1007170004BB120223120648E582700890000112FA
:10072700008C80F1120691E58260EA1206B300128E
:0707370006E41205B580DEA7
:1012010052465F4348203A20253032580D0A005299
:10121100465F5345545550203A20253032580D0A27
:1012210000537461747573203A20253032580D0AC9
:1012310000454E5F4141203A20253032580D0A00C9
:1012410044594E5044203A20253032580D0A004668
:10125100454154555245203A20253032580D0A0057
:1012610052585F414444525F5031203A20002530AA
:101271003258000D0A0054585F41444452203A202C
:101281000052585F50575F5031203A202530325874
:101291000D0A00454E5F525841444452203A2025E0
:1012A1003032580D0A00434F4E464947203A202517
:1012B1003032580D0A00525044203A20253032581D
:0912C1000D0A002530325820000E
:10073E00AF8243E78075E50475E3008FE48572E2CE
:10074E0075E64675E6B975E50053E77F22AF82433D
:10075E00E78075E50575E3008FE475E64675E6B945
:10076E0075E50053E77F85E2822275824812075BAA
:10077E00E58254DFF57275824812073E7582481283
:10078E00075BE58254BFF57275824812073E75828B
:10079E004C12075B75824C12075BC0AC75AC0053F4
:1007AE0095EB85959575AC015392EB439214D0ACB5
:1007BE00C0AC75AC005395EB85959575AC01539215
:1007CE00EB439214D0AC53B1FC85B1B153B2FC43A0
:1007DE00B238C0AC75AC0085B3B385B3B375AC029B
:1007EE00859292439201D0ACC0AC75AC0153B5FC6E
:1007FE0085B5B575AC035392FC439203D0ACC0AC37
:10080E0075AC0243B404D0ACC0AC75AC0243B408B2
:10081E00D0ACC0AC75AC0243B410D0ACC0AC75ACAF
:10082E000243B420D0ACC0AC75AC0243B440D0ACE3
:10083E00C0AC75AC0243B480D0ACC0AC75AC034355
:10084E00B402D0ACC0AC75AC08859292D0ACC0AC42
:10085E0075AC09859292D0ACC0AC75AC07859292FE
:10086E00D0ACC0AC75AC0A859292D0AC02087DC2F9
:10087E009C75AC00539CEFC29FD29E539CF7439C39
:10088E004053877F439C0143B94043B91043B9207D
:10089E0053B97F759AF3759BF343B98053A4F775DB
:0D08AE00AC0753A4F775AC00D29CD2992280
:06003500E478FFF6D8FD9F
:100013007900E94400601B7A009012D5784275A0FC
:1000230000E493F2A308B8000205A0D9F4DAF2754C
:02003300A0FF2C
:1008BB0020F71130F6138883A88220F509F6A88358
:0B08CB007583002280FEF280F5F02211
:10003B007800E84400600A790075A000E4F309D861
:10004B00FC7842E84400600C7901900000E4F0A3D6
:04005B00D8FCD9FAFA
:1008D600C0718581717E008E83120067D07122857A
:1008E600825485835585F056E4F551F552F55385C6
:1008F60043579008D60209C4C071E581F57124FBFF
:10090600FF8F57E4F551F552F553E57124FBF88650
:10091600540886550886569008D61209C4D0712206
:10092600AF82C047C048C0491209338007C045C0DE
:10093600468F8222158115811581054FE4B54F0238
:10094600055022AF8274302FFF24C6500B74072F38
:10095600FFE54460034307208F82020926E582FFF4
:10096600C4540FF582C007120949D007740F5FF50A
:1009760082020949858272AB4AAC4BAD4CAE4DAA98
:100986004E7574208A07EF2FF573EE2354014573D5
:10099600FAEB2BFBEC33FCED33FDEE33FEC3EA95AD
:1009A600724008EAC39572FA430301E57414FF8F97
:1009B6007470D18B4A8C4B8D4C8E4D8A4E2285821B
:1009C60045858346855147855248855349E4F54F09
:1009D600F550AD54AE55AF568D828E838FF0121101
:1009E600E1FC74012DF554E43EF5558F56ECFF708D
:1009F600030211A5BF2502800302119D7E007D0022
:100A06008E588E597A007B008E5A7C008E5BE4F5F8
:100A160063F564755CFF755DFF8554658555668570
:100A260056678565828566838567F01211E1F568EC
:100A3600A385826585836685655485665585675673
:100A46007425B56808856882120926808574D025C4
:100A5600684003020B06E56824C65003020B0674C1
:100A6600FFB55C55B55D5285637285647390000A67
:100A7600C006C005C004C003C0021211C485826945
:100A860085836AD002D003D004D005D00685686B72
:100A9600756C00E56B2569F56BE56C356AF56CE5FB
:100AA6006B24D0F563E56C34FFF564E5634564605B
:100AB60003020A287D01020A28855C72855D73900F
:100AC600000AC006C005C004C003C0021211C485D6
:100AD600826B85836CD002D003D004D005D0068506
:100AE6006869756A00E569256BF56BE56A356CF52D
:100AF6006CE56B24D0F55CE56C34FFF55D020A28E5
:100B0600742EB5681574FFB55C05B55D02800302E9
:100B16000A28E4F55CF55D020A28749F2568500EE4
:100B2600E568248540085368DF75440180037544F1
:100B3600007420B56803020BD2742BB56803020B50
:100B4600CC742DB5680280797442B56803020BD85F
:100B56007443B56803020BE37444B56803020E30B0
:100B66007446B56803020E467448B56803020A283F
:100B76007449B56803020E30744AB56803020A2840
:100B8600744CB568028050744FB56803020E377412
:100B960050B56803020D7B7453B5680280767454B1
:100BA600B56803020A287455B56803020E3C7458EA
:100BB600B56803020E41745AB56803020A28020E8C
:100BC6004A7E01020A28755801020A28755901024F
:100BD6000A287B01020A28755A01020A28EB600AD4
:100BE600E55714F98957876B800DE55724FEF5699B
:100BF600856957A969876B856B82C006C005C004E5
:100C0600C003C002120926D002D003D004D005D0FA
:100C160006020E6CE55724FDF56B856B57A96B87AD
:100C260065098766098767191985654A85664B854B
:100C3600674C8565828566838567F0C006C005C0FA
:100C460004C003C0021211AC85826B85836CD0028E
:100C5600D003D004D005D00674FFB55C09B55D0697
:100C6600856B5C856C5DEE704FC3E56B9563E56CDB
:100C760095645044E563C3956BF569E564956CF539
:100C86006A856965856A66156974FFB56902156ABC
:100C9600E5654566601C758220C006C005C004C0B7
:100CA60003C002120926D002D003D004D005D00614
:100CB60080CF856963856A64855C69855D6A854AD6
:100CC60082854B83854CF01211E1F5658565606080
:100CD6004FC3E495697480856AF063F08095F0509F
:100CE6003F156974FFB56902156A856082C006C042
:100CF60005C004C003C002120926D002D003D004E6
:100D0600D005D006854A65854B66854C670565E442
:100D1600B56502056685654A85664B85674C809E86
:100D2600EE7003020E6CC3E56B9563E56C9564404B
:100D360003020E6CE563C3956BF56BE564956CF584
:100D46006C856B69856C6A156B74FFB56B02156CE7
:100D5600E569456A7003020E66758220C006C00505
:100D6600C004C003C002120926D002D003D004D0AA
:100D760005D00680CCE55724FDF569856957A96934
:100D86008765098766098767191985654A85664BE8
:100D960085674C854C617480256150057569438073
:100DA6001974A025615005756950800E74C02561BF
:100DB60050057569498003756958856982C006C002
:100DC60005C004C003C00212092675823A1209261C
:100DD600758230120926758278120926D002D00350
:100DE600D004D005D0067449B5690280217450B587
:100DF6006902801A854B82C006C005C004C003C0C4
:100E060002120963D002D003D004D005D006854A69
:100E160082C006C005C004C003C002120963D00226
:100E2600D003D004D005D006803C7A01755B0A80D9
:100E360035755B088030755B0A802B755B108026E4
:100E46007C018022856882C006C005C004C003C03C
:100E560002120926D002D003D004D005D00680069F
:100E6600856B63856C64EC6068E55724FCFC8C57E5
:100E76008C01876D09876E09876F098770191919A3
:100E8600856D4A856E4B856F4C85704D754ACA7562
:100E96004B12754C80854A6D854B6E854C6F74017F
:100EA600256DF565E4356EF566856F6785654A855A
:100EB600664B85674C856D82856E83856FF0121152
:100EC600E1FC8C6D70030209D8856D8212092680BB
:100ED600C4E55B70030209D8EB603FE55714F98956
:100EE6005787048C6D756E00756F00757000856D83
:100EF6004A856E4B856F4C85704DEA6003020F89FB
:100F0600854A6D756E00756F00757000856D4A8532
:100F16006E4B856F4C85704D8069E55A6025E557A7
:100F260024FCFC8C578C01876D09876E09876F0935
:100F36008770191919856D4A856E4B856F4C8570BA
:100F46004D8040E55724FEFC8C578C0187030987AA
:100F560004198B6DECF56E3395E0F56FF570856DC4
:100F66004A856E4B856F4C85704DEA7016854A6DC5
:100F7600854B6EF56FF570856D4A856E4B856F4CAA
:100F860085704DEA602AE54D30E723C3E4954AF5BE
:100F96006DE4954BF56EE4954CF56FE4954DF57063
:100FA600856D4A856E4B856F4C85704D80027A0043
:100FB6007C01790DE4F56DF56E754E00855B82C09A
:100FC60006C005C004C002C00112097AD001D002D1
:100FD600D004D005D006EC700DE54EC4F56BE7FBEA
:100FE600456BF7198002A74E056DE4B56D02056ED7
:100FF600ECB40100E433FCE54A454B454C454D70E5
:10100600B88962856D5E856E5FE5634564700575BA
:101016006301F564ED7043EE704085636D85646E23
:10102600AB5E0B8B6B756C00C3E56B956DE56C95D4
:101036006E5021758220C006C005C004C002120988
:1010460026D002D004D005D006156D74FFB56D020A
:10105600156E80CC856D63856E64EA601D75822D84
:10106600C006C005C004120926D004D005D0061556
:101076006374FFB5630215648046E55E455F6040B4
:10108600E558601D75822BC006C005C004120926EE
:10109600D004D005D006156374FFB56302156480CD
:1010A6001FE559601B758220C006C005C0041209E1
:1010B60026D004D005D006156374FFB56302156407
:1010C600EE703C85636D85646EAA6DAB6E156D74AE
:1010D600FFB56D02156EC3E55E9AE55F9B5041ED67
:1010E60060067A307B0080047A207B008A82C00604
:1010F600C005C004120926D004D005D00680CAC394
:10110600E55E9563E55F9564500FE563C3955EF50F
:101116006BE564955FF56C800DE4F56BF56C800608
:10112600856D6B856E6CA962855E6D855F6EAA6D39
:10113600AD6E156D74FFB56D02156EEA4D602EEC41
:10114600B40100E433FC700A09E7C4540FFD8D4E68
:1011560080078705740F5DF54E854E82C006C00474
:10116600C001120949D001D004D00680C1EE700337
:101176000209D8AD6BAE6C8D038E041DBDFF011E3A
:10118600EB4C70030209D8758220C006C00512090F
:1011960026D005D00680E08F821209260209D8855E
:0611A6004F8285508322F8
:0B12CA003C4E4F20464C4F41543E006C
:1011AC00AA82AB831211E16003A380F8C3E5829A93
:1011BC00F582E5839BF58322E5828572F0A4C582D6
:1011CC00C0F08573F0A4D0F025F0C5838572F0A42F
:0511DC002583F58322CC
:0D0006007581741211FDE582600302000394
:1011E10020F71430F6148883A88220F507E6A88337
:1011F10075830022E280F7E49322E02275820022C7
:00000001FF
