:04000000020059326F
:01000B0032C2
:0100130032BA
:01001B0032B2
:0100230032AA
:01002B0032A2
:01003300329A
:01003B003292
:01004300328A
:01004B003282
:0300530002019413
:0800B200E4F530F531020056BF
:030056000202059E
:2000BA00AE828E96A2ACE433FFC2AC85969910990280FBEF24FF92AC90000022AF82EF60A4
:2000DA00031F80FA22AE82AF83EE4F602D7582C8C007C0061200D67582C81200D67582C882
:2000FA001200D67582C81200D67582C81200D6D006D0071EBEFF011F80CF2275C75875820C
:20011A00641200D675E78075E30075E44275E50575E64675E6B900E5E2541F4420F5E275AC
:20013A00E30075E44275E50475E64675E6B90075E50075E70053B63F75E78075E30075E489
:20015A004275E50575E64675E6B90053E2FC75E30075E44275E50475E64675E6B90075E59E
:20017A000075E70053BEC053B6C075971043BE8022438E1043AD08D2AF22C020C0E0C0F004
:20019A00C082C083C007C006C005C004C003C002C001C000C0D075D000E59730E003759734
:2001BA0001E59730E103759702E59730E203759704E59730E41875971074BEC0E0740CC00F
:2001DA00E07480C0E01203BB158115811581D0D0D000D001D002D003D004D005D006D007C3
:1C01FA00D083D082D0F0D0E0D0203212025012011512018B9003E81200DF80F8A4
:0F0CBE004865726520696E20727463200D0A000C
:20021600AF8243E78075E50475E3008FE48561E275E64675E6B975E50053E77F22AF82439E
:1A023600E78075E50575E3008FE475E64675E6B975E50053E77F85E282224A
:20025000758248120233E58254DFF561758248120216758248120233E58254BFF561758262
:200270004812021675824C12023375824C120233C0AC75AC005395EB85959575AC015392D2
:20029000EB439214D0ACC0AC75AC005395EB85959575AC015392EB439214D0AC53B1FC8513
:2002B000B1B153B2FC43B238C0AC75AC0085B3B385B3B375AC02859292439201D0ACC0ACB1
:2002D00075AC0153B5FC85B5B575AC035392FC439203D0ACC0AC75AC0243B404D0ACC0AC2E
:2002F00075AC0243B408D0ACC0AC75AC0243B410D0ACC0AC75AC0243B420D0ACC0AC75AC8F
:200310000243B440D0ACC0AC75AC0243B480D0ACC0AC75AC0343B402D0ACC0AC75AC088577
:200330009292D0ACC0AC75AC09859292D0ACC0AC75AC07859292D0ACC0AC75AC0A85929259
:20035000D0AC020355C29C75AC00539CEFC29FD29E539CF7439C4053877F439C0143B9400F
:2003700043B91043B92053B97F759AF3759BF343B98053A4F775AC0753A4F775AC00D29CA6
:03039000D29922DD
:06008800E478FFF6D8FD4C
:200066007900E94400601B7A00900CD8780075A000E493F2A308B8000205A0D9F4DAF2755D
:02008600A0FFD9
:20008E007800E84400600A790075A000E4F309D8FC7800E84400600C7900900000E4F0A372
:0400AE00D8FCD9FAA7
:20039300C0608581607E008E831200BAD0602285824385834485F045E4F540F541F54285BC
:2003B3003246900393020481C060E581F56024FBFF8F46E4F540F541F542E56024FBF886CF
:1003D30043088644088645900393120481D0602223
:2003E300AF82C036C037C0381203F08007C034C0358F8222158115811581053EE4B53E025E
:20040300053F22AF8274302FFF24C6500B74072FFFE53360034307208F820203E3E582FF3E
:20042300C4540FF582C007120406D007740F5FF582020406858261AB39AC3AAD3BAE3CAA4E
:200443003D7563208A07EF2FF562EE2354014562FAEB2BFBEC33FCED33FDEE33FEC3EA95AD
:20046300614008EAC39561FA430301E56314FF8F6370D18B398C3A8D3B8E3C8A3D22858252
:2004830034858335854036854137854238E4F53EF53FAD43AE44AF458D828E838FF0120C13
:2004A3009EFC74012DF543E43EF5448F45ECFF7003020C62BF25028003020C5A7E007D00FC
:2004C3008E478E487A007B008E497C008E4AE4F552F553754BFF754CFF854354854455859D
:2004E30045568554828555838556F0120C9EF557A38582548583558554438555448556451E
:200503007425B557088557821203E3808574D0255740030205C3E55724C650030205C3744C
:20052300FFB54B55B54C5285526185536290000AC006C005C004C003C002120C8185825833
:20054300858359D002D003D004D005D00685575A755B00E55A2558F55AE55B3559F55BE5FF
:200563005A24D0F552E55B34FFF553E552455360030204E57D010204E5854B61854C6290AE
:20058300000AC006C005C004C003C002120C8185825A85835BD002D003D004D005D006856E
:2005A3005758755900E558255AF55AE559355BF55BE55A24D0F54BE55B34FFF54C0204E580
:2005C300742EB5571574FFB54B05B54C0280030204E5E4F54BF54C0204E5749F2557500E2F
:2005E300E557248540085357DF75330180037533007420B5570302068F742BB5570302067E
:2006030089742DB5570280797442B557030206957443B557030206A07444B557030208ED18
:200623007446B557030209037448B557030204E57449B557030208ED744AB557030204E5AF
:20064300744CB557028050744FB557030208F47450B557030208387453B557028076745481
:20066300B557030204E57455B557030208F97458B557030208FE745AB557030204E50209EC
:20068300077E010204E57547010204E57548010204E57B010204E57549010204E5EB600A2F
:2006A300E54614F98946875A800DE54624FEF558855846A958875A855A82C006C005C00473
:2006C300C003C0021203E3D002D003D004D005D006020929E54624FDF55A855A46A95A87F8
:2006E30054098755098756191985543985553A85563B8554828555838556F0C006C005C09C
:2007030004C003C002120C6985825A85835BD002D003D004D005D00674FFB54B09B54C065B
:20072300855A4B855B4CEE704FC3E55A9552E55B95535044E552C3955AF558E553955BF5BB
:2007430059855854855955155874FFB558021559E5544555601C758220C006C005C004C007
:2007630003C0021203E3D002D003D004D005D00680CF855852855953854B58854C598539D6
:2007830082853A83853BF0120C9EF55485544F604FC3E4955874808559F063F08095F05008
:2007A3003F155874FFB558021559854F82C006C005C004C003C0021203E3D002D003D004FF
:2007C300D005D006853954853A55853B560554E4B55402055585543985553A85563B809E33
:2007E300EE7003020929C3E55A9552E55B95534003020929E552C3955AF55AE553955BF584
:200803005B855A58855B59155A74FFB55A02155BE55845597003020923758220C006C00589
:20082300C004C003C0021203E3D002D003D004D005D00680CCE54624FDF558855846A95847
:200843008754098755098756191985543985553A85563B853B507480255050057558438023
:200863001974A025505005755850800E74C0255050057558498003755858855882C006C032
:2008830005C004C003C0021203E375823A1203E37582301203E37582781203E3D002D003BB
:2008A300D004D005D0067449B5580280217450B55802801A853A82C006C005C004C003C0C9
:2008C30002120420D002D003D004D005D006853982C006C005C004C003C002120420D0029D
:2008E300D003D004D005D006803C7A01754A0A8035754A088030754A0A802B754A1080268E
:200903007C018022855782C006C005C004C003C0021203E3D002D003D004D005D0068006E1
:20092300855A52855B53EC6068E54624FCFC8C468C01875C09875D09875E09875F191919FE
:20094300855C39855D3A855E3B855F3C7539CD753A0C753B8085395C853A5D853B5E7401F1
:20096300255CF554E4355DF555855E5685543985553A85563B855C82855D83855EF0120CBC
:200983009EFC8C5C7003020495855C821203E380C4E54A7003020495EB603FE54614F9899D
:2009A3004687048C5C755D00755E00755F00855C39855D3A855E3B855F3CEA6003020A46EF
:2009C30085395C755D00755E00755F00855C39855D3A855E3B855F3C8069E5496025E54646
:2009E30024FCFC8C468C01875C09875D09875E09875F191919855C39855D3A855E3B855F49
:200A03003C8040E54624FEFC8C468C018703098704198B5CECF55D3395E0F55EF55F855CA3
:200A230039855D3A855E3B855F3CEA701685395C853A5DF55EF55F855C39855D3A855E3B7F
:200A4300855F3CEA602AE53C30E723C3E49539F55CE4953AF55DE4953BF55EE4953CF55FC9
:200A6300855C39855D3A855E3B855F3C80027A007C01790DE4F55CF55D753D00854A82C0B6
:200A830006C005C004C002C001120437D001D002D004D005D006EC700DE53DC4F55AE7FB52
:200AA300455AF7198002A73D055CE4B55C02055DECB40100E433FCE539453A453B453C70A2
:200AC300B88951855C4D855D4EE55245537005755201F553ED7043EE704085525C85535D29
:200AE300AB4D0B8B5A755B00C3E55A955CE55B955D5021758220C006C005C004C002120368
:200B0300E3D002D004D005D006155C74FFB55C02155D80CC855C52855D53EA601D75822DF6
:200B2300C006C005C0041203E3D004D005D006155274FFB5520215538046E54D454E604076
:200B4300E547601D75822BC006C005C0041203E3D004D005D006155274FFB5520215538036
:200B63001FE548601B758220C006C005C0041203E3D004D005D006155274FFB55202155383
:200B8300EE703C85525C85535DAA5CAB5D155C74FFB55C02155DC3E54D9AE54E9B5041EDFE
:200BA30060067A307B0080047A207B008A82C006C005C0041203E3D004D005D00680CAC32F
:200BC300E54D9552E54E9553500FE552C3954DF55AE553954EF55B800DE4F55AF55B800653
:200BE300855C5A855D5BA951854D5C854E5DAA5CAD5D155C74FFB55C02155DEA4D602EECF8
:200C0300B40100E433FC700A09E7C4540FFD8D3D80078705740F5DF53D853D82C006C004BE
:200C2300C001120406D001D004D00680C1EE7003020495AD5AAE5B8D038E041DBDFF011EF2
:200C4300EB4C7003020495758220C006C0051203E3D005D00680E08F821203E3020495857E
:060C63003E82853F832262
:0B0CCD003C4E4F20464C4F41543E006F
:180C6900AA82AB83120C9E6003A380F8C3E5829AF582E5839BF5832207
:1D0C8100E5828561F0A4C582C0F08562F0A4D0F025F0C5838561F0A42583F583222A
:0D005900758163120CBAE582600302005647
:1C0C9E0020F71430F6148883A88220F507E6A88375830022E280F7E49322E02265
:040CBA00758200221D
:00000001FF
