:03000000020E1CD1
:0C0E1C00787FE4F6D8FD758141020CE1FE
:0B0E280041444348202025750D0A00BE
:100DF900A2AC9209C2AC8F993099FDC299A209920D
:030E0900AC7F00BB
:010E0C0022C3
:070E0D007FC8120E147FC81C
:080E1400EF6004001F80F922C9
:100DAC00AD07AC06ED4C6012120E0D120E0D7FC885
:0B0DBC00120E14ED1D70ED1C80EA22E9
:100D870043C408E5C430E4FB85C62C7BFF7A0E79A3
:100D97002885C63112086285C52D53C4EFE52C544A
:040DA7000FFEAF2D5F
:010DAB002225
:100CE100120C397F45120DE043E280ADE27F4512DF
:100CF1000DC7C2B3C2B5C2B47FE87E03120DACD238
:100D0100B3D2B5D2B443C480C0ACE4F5AC53C31F75
:100D110043C3A0D0AC7FD07E07120DACB2B4E5C402
:100D210054D84407F5C4120D87E48F2B8E2AF52978
:100D3100F5287F787E05FDFCAB2BAA2AA929A828D6
:090D4100120B5C8E228F2380CC82
:100DC70043E78075E504E4F5E38FE48DE275E646D5
:090DD70075E6B9F5E553E77F224A
:100DE00043E78075E505E4F5E38FE475E64675E6CF
:090DF000B9F5E553E77FAFE222FB
:03000300020E33B7
:030E3300C289323F
:100C39007F4C120DE0E5E2545F4480F5E2ADE27FBE
:100C49004C120DC77F40120DE043E210ADE27F4028
:100C5900120DC77FC7120DE053E27FADE27FC712C5
:100C69000DC7E4F5E2E5E2C39420500405E280F5FE
:100C79007F40120DE053E2FCADE27F40120DC77DCB
:100C8900107FC7120DC7E4FD7F43120DC7E4F5E2DB
:100C9900E5E2C394FD500405E280F5E4F5E2E5E2FE
:100CA900C394FD500405E280F5E4F5E2E5E2C3945E
:100CB900FD500405E280F5E4F5E2E5E2C394FD5058
:100CC9000405E280F57D107F40120DC753A1DFE5D1
:080CD900A1543FF5A1020D4AF0
:100D4A00C29CE4F5AC539CEFC29FD29E439C0843DD
:100D5A009C4053877F439C0143B94043B91043B930
:100D6A002053B97F759AF3759BF343B98053A4F75F
:0D0D7A0075AC0753A4F7F5ACD29CD29922BA
:100B5C00E88FF0A4CC8BF0A42CFCE98EF0A42CFC38
:100B6C008AF0EDA42CFCEA8EF0A4CDA8F08BF0A4B6
:100B7C002DCC3825F0FDE98FF0A42CCD35F0FCEB15
:100B8C008EF0A4FEA9F0EB8FF0A4CFC5F02ECD39DA
:0F0B9C00FEE43CFCEAA42DCE35F0FDE43CFC2247
:10080000E53D2431F8E6053D22782E3007027831A7
:10081000E475F001120C03020BAB2000EB7F2ED22B
:10082000008018EF540F2490D43440D4FF30040BD0
:10083000EF24BFB41A0050032461FFE53E600215A7
:100840003E0541E5417002054030070D782EE47504
:10085000F001120C03EF020BF1020DF97403D20741
:100860008003E4C207F53D8B2E8A2F8930E4F53EE4
:10087000F540F541E53E60077F2012083B80F575A5
:100880003FFFC201C200C202C203C205C206C208C3
:10089000120809FF700D3007057F0012084CAF41A8
:1008A000AE4022B4255FC2D5C204120809FF24D08D
:1008B000B40A00501A75F00A783E30D50508B6FF24
:1008C0000106C6A426F620D5047002D20380D924DE
:1008D000CFB41A00EF5004C2E5D204020A4CD20190
:1008E00080C6D20080C0D20280BCD2D580BAD205E8
:1008F00080B47F2012083B2002077401B53E0040FF
:10090000F1120800FF12083B020874D208D20680D8
:1009100095120800FB120800FA120800F94A4B7001
:1009200006791D7A0B7BFF20022EE53E602A7E00B1
:100930008E82758300120BC460060EEE653F70F068
:10094000C2D5EBC0E0EAC0E0E9C0E0EE120A93D005
:10095000E0F9D0E0FAD0E0FB120BABFF60AAEBC0ED
:10096000E0EAC0E0E9C0E012083BD0E02401F9D0A1
:10097000E03400FAD0E0FBE53F0460DCD53FD980ED
:10098000877BFF7A0A798FD202809C791080027966
:1009900008C206C2088008D2D5790A8004790AC242
:1009A000D5E53F047002F53FE4FAFDFEFF120800B2
:1009B000FC7B08200113120800FD7B1030000A1296
:1009C0000800FE120800FF7B20EC3382D592D55040
:1009D00013C3E43000069FFFE49EFEE42001039D64
:1009E000FDE49CFCE4CBF8C201EC700CCFCECDCC86
:1009F000E824F8F870F38017C3EF33FFEE33FEED11
:100A000033FDEC33FCEB33FB994002FB0FD8E9EBF1
:100A1000300105F8D0E0C448B201C0E00AEC4D4E08
:100A20004F78207B0070C2EAB53F0040BCC0E012A6
:100A30000A95D0F0D0E0200104C4C0E0C4B201C0E7
:100A4000F0120824D0F0D5F0EB020874120C130950
:100A50001153098B5808E24C08DE42098F4F099761
:0F0A60004409974908F743099D550981460981C3
:100A6F00450981470B3D5008E62D08EA2E090D2B4D
:100A7F0008EE23090B200B262A08A64800000905BB
:100A8F003F3F3F00790AA2D5200314300509B91062
:100A9F00020404B9080104A2D52006025001042063
:100AAF0002689202B53E005034C0E07F2030031937
:100ABF007F30A20272067205500F120AECC202C2F8
:100ACF0006C205C2087F30800F300503E9C0E0126F
:100ADF00083B300503D0E0F9D0E0B53ECC30051728
:100AEF007F30B9100C12083B7F583004077F788095
:100AFF0003B9080312083B3002057F2D02083B7F24
:100B0F00202008F87F2B2006F322920280CF286E38
:100B1F00756C6C2900D2011208003001F8C20178FF
:100B2F003E30D50108F60208A62D50434958120849
:100B3F00002403B405004001E4900B389312082CF5
:0D0B4F00743A12082CD203753E0402098B83
:100BAB00BB010689828A83E0225002E722BBFE0248
:090BBB00E32289828A83E493227B
:100BC400BB010CE58229F582E5833AF583E02250E6
:100BD40006E92582F8E622BBFE06E92582F8E22230
:0D0BE400E58229F582E5833AF583E493224A
:100BF100BB010689828A83F0225002F722BBFE01E3
:020C0100F322DC
:100C0300FAE6FB0808E6F925F0F618E6CA3AF622F2
:100C1300D083D082F8E4937012740193700DA3A370
:100C230093F8740193F5828883E473740293686084
:060C3300EFA3A3A380DF84
:00000001FF
